:020000040000FA
:100000000C9462020C948A020C948A020C948A0268
:100010000C948A020C948A020C948A020C948A0230
:100020000C948A020C948A020C948A020C948A0220
:100030000C948A020C948A020C948A020C948A0210
:100040000C9470070C948A020C948A020C948A0215
:100050000C948A020C948A020C948A020C948A02F0
:100060000C94BA070C948A02C9C9C9C9C9C9C9C9BB
:10007000C9C9C9C9CACBCCCDCECFCFD0D1D2D2D3AA
:10008000D4D4D5D5D6D6D7D7D8D8D9D9DADADBDBF8
:10009000DCDCDCDDDDDDDEDEDFDFDFE0E0E0E1E17A
:1000A000E1E2E2E2E2E3E3E3E4E4E4E4E5E5E5E51A
:1000B000E6E6E6E6E7E7E7E7E8E8E8E8E9E9E9E9C8
:1000C000E9EAEAEAEAEBEBEBEBEBECECECECECED7F
:1000D000EDEDEDEDEEEEEEEEEEEEEFEFEFEFEFF03D
:1000E000F0F0F0F0F0F1F1F1F1F1F1F2F2F2F2F200
:1000F000F2F2F3F3F3F3F3F3F4F4F4F4F4F4F4F5C9
:10010000F5F5F5F5F5F5F6F6F6F6F6F6F6F7F7F792
:10011000F7F7F7F7F8F8F8F8F8F8F8F8F9F9F9F95F
:10012000F9F9F9FAFAFAFAFAFAFAFAFBFBFBFBFB2D
:10013000FBFBFBFCFCFCFCFCFCFCFCFCFDFDFDFDFE
:10014000FDFDFDFDFEFEFEFEFEFEFEFEFEFFFFFFD0
:10015000FFFFFFFFFFFF00000000000000000001A4
:100160000101010101010101010202020202020278
:10017000020203030303030303030303040404044D
:100180000404040404040505050505050505050525
:1001900006060606060606060606070707070707F9
:1001A00007070707080808080808080808080809D2
:1001B000090909090909090909090A0A0A0A0A0AA9
:1001C0000A0A0A0A0A0B0B0B0B0B0B0B0B0B0B0C83
:1001D0000C0C0C0C0C0C0C0C0C0C0D0D0D0D0D0D59
:1001E0000D0D0D0D0D0E0E0E0E0E0E0E0E0E0E0E34
:1001F0000F0F0F0F0F0F0F0F0F0F0F10101010100A
:1002000010101010101010111111111111111111E5
:1002100011111212121212121212121212131313BD
:100220001313131313131313141414141414141496
:100230001414141415151515151515151515151671
:100240001616161616161616161617171717171748
:100250001717171717171818181818181818181824
:100260001819191919191919191919191A1A1A1AFB
:100270001A1A1A1A1A1A1A1B1B1B1B1B1B1B1B1BD5
:100280001B1B1C1C1C1C1C1C1C1C1C1C1C1D1D1DAD
:100290001D1D1D1D1D1D1D1D1E1E1E1E1E1E1E1E86
:1002A0001E1E1E1F1F1F1F1F1F1F1F1F1F1F20205F
:1002B0002020202020202020212121212121212136
:1002C000212121222222222222222222222323230E
:1002D00023232323232323242424242424242424E5
:1002E00024252525252525252525252626262626BA
:1002F0002626262626272727272727272727272892
:100300002828282828282828292929292929292965
:10031000292A2A2A2A2A2A2A2A2A2A2B2B2B2B2B39
:100320002B2B2B2B2C2C2C2C2C2C2C2C2D2D2D2D0D
:100330002D2D2D2D2D2E2E2E2E2E2E2E2E2F2F2FDF
:100340002F2F2F2F2F2F30303030303030303131B1
:10035000313131313132323232323232323333337F
:10036000333333333334343434343434353535354E
:10037000353535353636363636363637373737371C
:100380003738383838383838393939393939393AE5
:100390003A3A3A3A3A3B3B3B3B3B3B3C3C3C3C3CAD
:1003A0003C3D3D3D3D3D3D3E3E3E3E3E3E3F3F3F72
:1003B0003F3F404040404041414141414142424233
:1003C00042424343434343444444444445454545F2
:1003D00046464646464747474748484848494949A8
:1003E000494A4A4A4A4B4B4B4B4C4C4C4C4D4D4D59
:1003F0004D4E4E4E4F4F4F4F505050515151525203
:10040000525353535454545555555656565757589E
:1004100058585959595A5A5B5B5C5C5C5D5D5E5E2D
:100420005F5F6060616162626363646565666667A1
:100430006868696A6A6B6C6D6D6E6F7071717273EA
:100440007475767778797A7B7C7D7D7D7D7D7D7D09
:100450007D7D7D7D7D7D7D7D7D7D7D7D7D7D7D7DCC
:100460007D7D7D7D7D7D7D00000000090003020013
:10047000000405080000000000000000000000006B
:10048000000000250028002B0000000000240027A9
:10049000002A000404040404040404020202020208
:1004A00002030303030303020203010204081020F2
:1004B000408001020408102001020408102040803E
:1004C0004000E50811241FBECFEFD8E0DEBFCDBF4E
:1004D00011E0A0E0B1E0E4E3F8E102C005900D9284
:1004E000AE32B107D9F722E0AEE2B1E001C01D9211
:1004F000A035B207E1F712E0C2E6D2E004C02197CE
:10050000FE010E94090CC136D107C9F70E94620999
:100510000C94180C0C94000090E0FC01E655FB4F85
:1005200024918D569B4FFC018491882399F090E093
:10053000880F991FFC01E757FB4FA591B491FC016F
:10054000E158FB4F859194918FB7F894EC91E22B91
:10055000EC938FBF0895282F9091130281E0913280
:1005600008F042C08091EF018111FCCF809112020E
:1005700032E03093EF012093EE012FEF2093ED0155
:1005800022EF31E03093EC012093EB011092EA016D
:100590009093E9011092E8019091E801880F892B6E
:1005A0008093E8018091E701813029F51092E701FD
:1005B0008091E8018093BB008091BC0083FDF8CF5F
:1005C00085EC8093BC008091EF018230E1F3809153
:1005D000ED018F3F91F08091ED01803281F08091AB
:1005E000ED01803371F084E01092F101109213025A
:1005F0001092F001089585EEE4CF80E0F5CF82E01F
:10060000F3CF83E0F1CF9091E2018091E1012FEFF0
:100610003FEF981748F4E92FF0E0EF53FE4F2081A9
:1006200030E09F5F9093E201C90108959091E2014B
:100630008091E1012FEF3FEF981748F4E92FF0E0A8
:10064000EF53FE4F208130E09F5F9093E201C9019C
:100650000895982F8091EF018111FCCF81E0809364
:10066000EF014093EE012FEF2093ED0121EC31E0FB
:100670003093EC012093EB011092EA012FEF260F4B
:100680002093E9018093E8018091E801990F982B6C
:100690009093E8018091E7018130C9F41092E7015D
:1006A0008091E8018093BB008091BC0083FDF8CF6E
:1006B00085EC8093BC008091EF018130E1F3809163
:1006C000EA01861710F46091EA01862F089585EEFD
:1006D000F0CF90E0FC01E859FB4F2491FC01E65576
:1006E000FB4F3491FC01ED56FB4FE491EE23C9F032
:1006F000222339F0243001F1A8F4223069F12330AB
:1007000079F1F0E0EE0FFF1FE158FB4FA591B49196
:100710008FB7F894EC91611126C030953E233C933D
:100720008FBF0895283071F0293091F0253049F7B6
:10073000809180008F7D03C0809180008F778093AF
:100740008000DFCF8091B0008F778093B000D9CF49
:100750008091B0008F7DF9CF84B58F7784BDD1CFE4
:1007600084B58F7DFBCF3E2BDACF61E080912102F3
:100770000C946903883020F08D3008F48DE08E50A1
:100780008770806480937C0080917A00806480937D
:100790007A0080917A0086FDFCCF8091780090915C
:1007A000790008953FB7F8948091BD019091BE0102
:1007B000A091BF01B091C00126B5A89B05C02F3FF5
:1007C00019F00196A11DB11D3FBFBA2FA92F982F77
:1007D0008827BC01CD01620F711D811D911D42E072
:1007E000660F771F881F991F4A95D1F708950895BE
:1007F000089585ED8093BC008091BC0084FDFCCF02
:100800001092EF01089520915701260F3327331FCF
:1008100021323105ECF42091EF01FC0190E080E001
:10082000243069F082E00895A09157012191AC0134
:10083000495C5E4FA40FB52FB11D2C93019686170E
:1008400098F380915701680F6093570180E00895F5
:1008500081E008950895E091E2018091E101E817B7
:1008600030F4F0E0EF53FE4F808190E008958FEF79
:100870009FEF08958091E1019091E201891B990B0E
:100880000895CF92DF92EF92FF920F931F93CF9331
:10089000DF937C01CB018A012091F001222389F0B2
:1008A000EB016B01C40ED51ECC15DD0569F0699115
:1008B000D701ED91FC910190F081E02DC7010995E0
:1008C000F3CF642F0E940304C801DF91CF911F91E1
:1008D0000F91FF90EF90DF90CF900895CF93DF932B
:1008E0001F92CDB7DEB769832091F0012223F9F082
:1008F00020911302203258F021E030E0FC013383D4
:10090000228390E080E00F90DF91CF910895809155
:10091000F101E82FF0E0EE50FE4F998190838F5F58
:100920008093F1018093130281E090E0ECCF61E0CD
:10093000CE0101960E940304F7CF682F84E192E074
:100940000C946E0490E080E008958EBD00000DB41C
:1009500007FEFDCF8EB50895CF93CFB7F894809161
:100960003601811124C0EDE9F4E08491E4EBF4E078
:100970009491E82FF0E0EE0FFF1FE757FB4FA59192
:10098000B491EC91E92321F461E08AE00E946903CB
:100990008AE00E948C028CB580618CBD8CB580642D
:1009A0008CBD8DE00E948C028BE00E948C028091B5
:1009B00036018F5F80933601CFBFCF9108959C01A0
:1009C0002B59394F2B3C4CE0340778F42F5F3F4FC5
:1009D0004EEF429FC001439F900D11246CEC7CE0D0
:1009E0000E94C40B81E8860F089580E80895FC01F9
:1009F000808191E09093F001809312021092F101B6
:100A0000109213028BE690E00E949D0490E080E03B
:100A10000E949D0481E00C94AB020F931F93009100
:100A2000220210912302209124023091250240E0FD
:100A300052E16AE770E080E00417150726073707E0
:100A400040F476956795579547958F5F8630A1F767
:100A500087E0982F906A9695809581709CBD8DBD9A
:100A600060E0809121021F910F910C946903CF9354
:100A7000C82F0E940D0583E00E94A5048C2F0E94C0
:100A8000A50480E00E94A504C82F0E94B5038C2F06
:100A9000CF9108951F93CF93DF93182FD62FC42F94
:100AA0000E940D0585E00E94A504812F0E94A504E7
:100AB0008D2F0E94A5048C2F0E94A504DF91CF9159
:100AC0001F910C94B503CF92DF92EF92FF92CF93D8
:100AD000C82F482F68EE8FE00E944A058FB7F89420
:100AE000C090E301D090E401E090E501F090E601D0
:100AF0008FBF8AE0C80ED11CE11CF11C2FB7F894FF
:100B00008091E3019091E401A091E501B091E601AB
:100B10002FBF8C159D05AE05BF0580F48EE00E94A9
:100B20003705807EC813EACF81E091E0892790E005
:100B3000CF91FF90EF90DF90CF90089580E0F5CFB8
:100B4000CF93DF93D82FC62F0E940D0582E00E941D
:100B5000A5048D2F0E94A5048C2F0E94A504DF916F
:100B6000CF910C94B503FF920F931F93CF93DF9314
:100B7000C82FF62E172F042F0E940D0582E00E9429
:100B8000A5048C2F0E94A504CF2DD12F0C0F1D2F53
:100B9000111DC017D10721F089910E94A504F9CF3A
:100BA000DF91CF911F910F91FF900C94B5034F925D
:100BB0005F926F927F928F929F92AF92BF92CF92ED
:100BC000DF92EF92FF920F931F93CF93DF93CDB7F6
:100BD000DEB763970FB6F894DEBF0FBECDBFFC0142
:100BE0002481293008F08DC05C0186E0E0E0F1E06E
:100BF000DE011E9601900D928A95E1F73E01FEE01E
:100C00006F0E711C8E010C5E1F4FF301C190D190CD
:100C10003F017601EE0CFF1CF701EC0DFD1DEE5EB1
:100C2000FE4F8080882D0E94370583FD96C0F50118
:100C30009480F8E0F91508F464C0F5010081118191
:100C400022813381B901A801442777FD43955527B7
:100C500066277727D901C80188279927AA27B07462
:100C600044244A94542C642C7FE1772E411106C011
:100C700044244A9467E0562E612C712C04211521DE
:100C800026213721442309F43FC00C831B838901AB
:100C900022273327402F440F440F440F407E502F0C
:100CA00053705860452B4A8355E0169507955A9521
:100CB000E1F70983892B8A2B8B2BA1F1892D806485
:100CC0008D83492D50E0B501685F7F4FCE010696B8
:100CD0000E940F0C45E0490DF701EC0DFD1DEE5E85
:100CE000FE4FBE016F5F7F4F81810E94B30548E0D8
:100CF00068E0882D0E944A05882D0E94370580777C
:100D000099F084E090E012C0A80123E05695479541
:100D10002A95E1F749830295000F007E0A831C8221
:100D20001B82C8CF892DCCCF90E080E063960FB6B0
:100D3000F894DEBF0FBECDBFDF91CF911F910F9111
:100D4000FF90EF90DF90CF90BF90AF909F908F90EB
:100D50007F906F905F904F9008956016710609F034
:100D600054CF82E090E0E2CFCF92DF92EF92FF92F9
:100D70000F931F93CF93DF938C01FC01808191E04F
:100D80009093F001809312021092F10110921302DD
:100D900083E490E00E949D0480E00E94AB0241E069
:100DA00066E0F80180810E9429031092E20180939D
:100DB000E1010E941603E12CF82E0E941603E82A96
:100DC000F92A0E941603C12CD82E0E941603C82AA5
:100DD000D92A0E941603D82FF0E0CF2F0E941603C5
:100DE000C82BD92BF801878190859701281B390BD7
:100DF000C9010E94DF04E82EF801818592859601E1
:100E0000281B390BC9010E94DF04F82EF8018385E5
:100E100094859E01281B390BC9010E94DF04B7018C
:100E2000DF91CF911F910F91FF90EF90DF90CF90C6
:100E30000895CF92DF92EF92FF920F931F93CF937B
:100E4000DF937C01FC01808191E09093F00180931D
:100E500012021092F101109213028BE390E00E94B3
:100E60009D0480E00E94AB0241E066E0F7018081D2
:100E70000E9429031092E2018093E1010E9416036F
:100E800000E0182F0E941603082B192B0E9416034E
:100E9000C12CD82E0E941603C82AD92A0E941603F4
:100EA000D82FF0E0CF2F0E941603F7012381348161
:100EB000C21AD30AC82BD92B85819681C81BD90B9E
:100EC00081819281081B190B612F7D2D8D2FDF9160
:100ED000CF911F910F91FF90EF90DF90CF900895E9
:100EE0001F920F920FB60F9211242F933F938F935F
:100EF0009F93AF93BF938091E3019091E401A09100
:100F0000E501B091E6013091BC0123E0230F2D37BC
:100F100068F126E8230F0296A11DB11D2093BC01A4
:100F20008093E3019093E401A093E501B093E6017F
:100F30008091BD019091BE01A091BF01B091C0010F
:100F40000196A11DB11D8093BD019093BE01A09398
:100F5000BF01B093C001BF91AF919F918F913F911D
:100F60002F910F900FBE0F901F9018950196A11D05
:100F7000B11DD4CF1F920F920FB60F9211242F9351
:100F80003F934F935F936F937F938F939F93AF9311
:100F9000BF93EF93FF938091B900887F803609F467
:100FA0004AC0F0F5883209F4A7C018F5803109F479
:100FB0009BC0B8F4882309F405C1883009F494C0B3
:100FC000FF91EF91BF91AF919F918F917F916F9121
:100FD0005F914F913F912F910F900FBE0F901F90F7
:100FE0001895883109F488C0803251F78093ED015B
:100FF00014C0803409F4A5C040F48033B9F38833B9
:10100000F9F68093ED0185ECBCC0803509F489C008
:10101000883509F49EC0883499F60E94F903D0CF30
:10102000883909F494C038F5883729F050F48836A7
:1010300011F0803729F683E08093EF011092790157
:1010400057C0883809F483C0803919F0803809F016
:10105000B7CF80917901803208F079C0E0917901B1
:1010600081E08E0F809379018091BB00F0E0E75A18
:10107000FE4F80833DC0803B39F0E0F4803A09F4B4
:1010800085C0883A09F09CCF84E08093EF011092EC
:10109000580110925701E0917C01F0917D01099572
:1010A0008091570181110FC081E080935701109208
:1010B000370109C0803C09F4A6CF883C09F4A3CFCE
:1010C000883B09F07DCFE091580181E08E0F80933D
:1010D0005801F0E0E95CFE4F80818093BB00909165
:1010E00058018091570131C08091E8018093BB0085
:1010F00085EC8093BC0064CF9091EA018091E90176
:101100009817B8F58091EB019091EC01E091EA011C
:1011100021E02E0F2093EA01E80FF92FF11D8081C5
:10112000E5CF2091EB013091EC01E091EA0181E003
:101130008E0F8093EA018091BB00E20FF32FF11D27
:1011400080839091EA018091E901981788F285E8FF
:10115000D0CF2091EB013091EC01E091EA0181E0E8
:101160008E0F8093EA018091BB00E20FF32FF11DF7
:1011700080838091EE01811150CF81E08093E7015F
:1011800084EA8093BC001092EF011ACF85EC809323
:10119000BC001092EF0180917901803230F4E0912F
:1011A0007901F0E0E75AFE4F10826091790170E01A
:1011B000E0917A01F0917B0189E591E00995109227
:1011C0007901FECE1092ED0128CFCF93DF93E4E1B9
:1011D000F2E01382128288EE93E0A0E0B0E0848314
:1011E0009583A683B7838FE191E091838083E7E4C1
:1011F000F2E087E0808383E2818382E282838DE074
:1012000099E094838383E2E4F2E08EE0808386E4D5
:1012100081838FE482838CE399E094838383E5E385
:10122000F2E088E6808389E79FEF9283818383E2FF
:1012300090E0948383838BE593E49683858388EEA3
:101240009FEF908787838DE79FEF9287818784E860
:101250009FEF94878387E8E2F2E089E680838DEF51
:1012600092E09283818380ED9EEF948383838CEA66
:1012700093E4968385838DE39EEF9087878383EE47
:101280009FEF9287818788E49FEF94878387C1E2ED
:10129000D2E080E292E09E838D830E94AC048AE0DB
:1012A000888380E896E9A8E9B0E089839A83AB83D4
:1012B000BC838AE00E948C0261E08881DF91CF913B
:1012C0000C946903CF93DF93CDB7DEB7A2970FB627
:1012D000F894DEBF0FBECDBF789484B5836084BD23
:1012E00085B5836085BD80916E00816080936E00BE
:1012F00082E08093810080918100816080938100F1
:10130000809180008160809380008091B100846032
:101310008093B1008091B00081608093B00087E835
:1013200080937A001092C1000E94AC040E940D05C7
:1013300080EC0E94A5040E94B5030E94D2034B01D9
:101340005C013AE0C32ED12CE12CF12C0E94D20397
:10135000681979098A099B09683E734081059105DE
:10136000A8F321E0C21AD108E108F10838EE830E93
:1013700033E0931EA11CB11CC114D104E104F1049B
:1013800029F78E010F5F1F4F8EE0F80111928A95A9
:10139000E9F74EE0B80180E30E94B3054EE0B801E2
:1013A00080E40E94B3054EE0B80180E50E94B305D9
:1013B00060E080E60E94A00560E080E70E94A00552
:1013C00063EA8BE20E94A00544E067E680E60E94A3
:1013D0004A0541E067E680E70E944A058CE0E6E0C6
:1013E000F1E0DE011F9601900D928A95E1F76E0102
:1013F000FFE0CF0ED11CF12CE12C28E0B22EF6013B
:10140000019111916F0180E80E946305892B71F4AD
:101410000230110509F4A9C108F054C101151105E4
:1014200009F4A9C10130110509F458C180E80E94EE
:101430006305892B61F460E08AE20E94A0056AEFEF
:1014400089E20E94A00567E888E20E94A00580E08A
:101450000E9463051092E2011092E1011092F101E5
:10146000109213021092EF0181E08093EE0110922E
:10147000E70161E082E10E94690361E083E10E948B
:1014800069038091B9008E7F8093B9008091B90083
:101490008D7F8093B90088E48093B80085E48093C1
:1014A000BC0087EF93E090937D0180937C0188EFEF
:1014B00093E090937B0180937A0185E392E00E9410
:1014C000F70488E292E00E94F70480E097E0A0E051
:1014D000B0E08093A8019093A901A093AA01B093D2
:1014E000AB0188E08093AC0141E057E060E070E040
:1014F000409398015093990160939A0170939B01D6
:1015000080939C0182E097E0A0E0B0E080938801A6
:1015100090938901A0938A01B0938B0183E080931B
:101520008C0180E0A82E80E0B82E8FB7F894C09090
:10153000E301D090E401E090E501F090E6018FBF77
:101540008091B8019091B901A091BA01B091BB010D
:10155000A7019601281B390B4A0B5B0BDA01C90165
:1015600084369105A105B10508F47FC0C092B80189
:10157000D092B901E092BA01F092BB01809147028A
:101580000E94BA032091480230E0DC010E94FA0B6D
:101590002091490230E050E040E00E94D80B0091D9
:1015A0004A0210914B02020F131F85E392E00E9442
:1015B0001907762E872E982E85E392E00E94B406B6
:1015C0001093B0010093B1017092B2018092B30107
:1015D0009092B4016093B5017093B6018093B70106
:1015E00088EA91E00E94D705809142020E94BA03E6
:1015F0002091430230E0DC010E94FA0B209144026A
:1016000030E050E040E00E94D80B0091450210917C
:101610004602020F131F88E292E00E941907762EFD
:10162000872E982E88E292E00E94B4061093A001C3
:101630000093A1017092A2018092A3019092A40153
:101640006093A5017093A6018093A70188E991E0BA
:101650000E94D70580E10E94BA0390939001809385
:10166000910188E891E00E94D70580917E019091D8
:101670007F01A0918001B0918101A7019601281BF3
:10168000390B4A0B5B0BDA01C901883E9340A10577
:10169000B10588F0C0927E01D0927F01E092800176
:1016A000F092810181E10E94BA0388599F4FFC01A9
:1016B000849180939201A114B10409F436CF0E9461
:1016C000000033CF0430110509F453C008F44FC0B3
:1016D0000530110509F0AACE88E101C084E0F1E0EF
:1016E000EF16F10409F049C01E8E1D8EBC8E1B8EB4
:1016F00044E0BE01655E7F4F0E94B3052FEFE21A02
:10170000F20A36E0E316F10409F079CE18A21F8E32
:1017100081E090E09AA389A38E01015E1F4F6E01C4
:1017200043E2C40ED11C98E0B92EF801E190F1908B
:101730008F0180E80E946305892B09F077CE1E8E09
:101740001D8EBC8E1B8EE114F104E1F0EA94EF28AB
:1017500009F06CCE84E244E0BE01655E7F4F0E94DA
:10176000B3050C151D0509F761CE88E0B8CF80E1FF
:10177000B6CF84E1B4CF80E0B2CF1B8E1C8E1E8E1C
:101780001D8EB6CF80E2E7CFAA1BBB1B51E107C07D
:10179000AA1FBB1FA617B70710F0A61BB70B881F01
:1017A000991F5A95A9F780959095BC01CD01089590
:1017B000A1E21A2EAA1BBB1BFD010DC0AA1FBB1F55
:1017C000EE1FFF1FA217B307E407F50720F0A21BC7
:1017D000B30BE40BF50B661F771F881F991F1A9434
:1017E00069F760957095809590959B01AC01BD015E
:1017F000CF010895A29FB001B39FC001A39F700DB8
:10180000811D1124911DB29F700D811D1124911D08
:101810000895EE0FFF1F0590F491E02D0994FB0150
:10182000DC0102C001900D9241505040D8F708955C
:10183000F894FFCF00000100020000000100020048
:101840000300040005003031364041465051560037
:101850000000006E044104A2042A043A0403032B8E
:02186000040082
:107E8000112424B614BE80E079D021FEEBC08EE030
:107E900075D0E0ECF0E0AFE7BFEF4899FECF9096E9
:107EA000489BFDCFB4831197F1F7B2E0B083B8E1FE
:107EB000B18352D0C82F823569F466D0E0E0FEE786
:107EC000A89583E093D091D0E058F109C8F787E7EF
:107ED0003CD0EFCF8D7FD9F44CD0D82FA0E0B1E0CB
:107EE0003BD08D93DA13FCCFA0E0B1E04DD0C111AF
:107EF0000CC0F2BDE1BD8D9180BDFA9AF99A319620
:107F0000F999FECFD150A9F7E2CF48D0E0CFC330E6
:107F100041F42FD0C82F38D0859117D0C150E1F748
:107F2000D6CFC13061F425D0C82F2ED0F2BDE1BD2F
:107F3000F89A80B50AD03196C150C1F7C8CFC13583
:107F400011F488E01BD020D0C2CF9091C00095FFE3
:107F5000FCCF8093C60008952D9A259A8091C00089
:107F600087FFFCCF84FD13C0A8958091C6002D9893
:107F70000895F2DFE82FF0DFF82FEECF98E190932D
:107F80006000809360000895E7DF803219F088E098
:107F9000F5DFFFCF80EAD9CFFB01DC01E07870E8A4
:107FA0007A0F9F01E0388EE7F80728F5309629F41C
:107FB0008FE38D938FEC8C93119790E045915D91B9
:107FC00045139160A713FACFF901A058B10990FFAA
:107FD00012C083E00BD081E00D901D9007D0329647
:107FE000A713FACFF90185E001D081E187BFE895B9
:107FF00017B610FCFDCF112408950319CDCFE7402B
:00000001FF
